:020000040800F2
:100000000080002071940008E98E00085D940008CB
:100010005D9400085D9400085D94000800000000F5
:100020000000000000000000000000000196000831
:100030005D940008000000008195000819AB0008DD
:10004000B5980008B5980008B5980008B59800085C
:10005000B5980008B5980008B5980008B59800084C
:10006000B5980008B5980008B5980008B59800083C
:10007000B5980008B5980008B5980008B59800082C
:10008000B5980008B5980008B5980008B59800081C
:10009000B5980008B5980008B5980008B59800080C
:1000A000B5980008B5980008B5980008B5980008FC
:1000B000B5980008B5980008B5980008B5980008EC
:1000C000B5980008B5980008B5980008B5980008DC
:1000D000B5980008B5980008B5980008B5980008CC
:1000E000B5980008B5980008B5980008B5980008BC
:1000F000B5980008B5980008B5980008B5980008AC
:10010000B5980008B5980008B5980008B59800089B
:10011000B5980008B5980008B5980008B59800088B
:10012000B5980008B5980008B5980008B59800087B
:10013000B5980008B5980008B5980008B59800086B
:10014000B5980008B5980008B5980008B59800085B
:10015000B5980008B5980008B5980008B59800084B
:10016000B5980008B5980008B5980008B59800083B
:10017000B5980008B5980008B5980008B59800082B
:10018000B5980008B5980008B5980008B59800081B
:10019000B5980008B5980008B5980008B59800080B
:1001A000B5980008B5980008B5980008B5980008FB
:1001B000B5980008B5980008B5980008B5980008EB
:1001C000B5980008B5980008B5980008B5980008DB
:0801D000B5980008B59800087D
:1001D800FFFFFFFFFFFFFFFFFFFFFFFFFFFFFFFF27
:1001E800FFFFFFFFFFFFFFFFFFFFFFFFFFFFFFFF17
:0801F800FFFFFFFFFFFFFFFF07
:1002000090F800F06DE9024520F007016FF0000C56
:1002100010F0070491F820F040F049804FF00004FE
:100220006FF00700D1E9002391F840F000F10800D9
:1002300082FA4CF2A4FA8CF283FA4CF3A2FA8CF311
:100240004BBBD1E9022382FA4CF200F10800A4FA78
:100250008CF283FA4CF3A2FA8CF3E3B9D1E90423CC
:1002600082FA4CF200F10800A4FA8CF283FA4CF303
:10027000A2FA8CF37BB9D1E9062301F1200182FABD
:100280004CF200F10800A4FA8CF283FA4CF3A2FAC3
:100290008CF3002BC6D0002A04BF04301A4612BAD1
:1002A000B2FA82F2FDE8024500EBD2007047D1E9D4
:1002B000002304F00305C4F100004FEAC50514F063
:1002C000040F91F840F00CFA05F562EA05021CBF34
:1002D00063EA050362464FF00004A9E7000000004E
:1002E000A2EB0300704700BF02780B78012A28BFF9
:1002F0009A42F5D16DE9044540EA0104CDE902676F
:100300006FF0000C4FEA447212B380EA010414F05B
:10031000070F6AD100F0070420F0070004F003057E
:1003200021F007014FEAC505F0E8042314F0040F9B
:10033000F1E804670CFA05F462EA040266EA0406CE
:100340000AD063EA0403624667EA0407664603E0EC
:10035000F0E80423F1E8046782FA4CF582EA060427
:10036000A4FA8CF46CBB83FA4CF583EA0705A5FA72
:100370008CF595B950E9022351E9026782FA4CF5F0
:1003800082EA0604A4FA8CF483FA4CF583EA0705A2
:10039000A5FA8CF52543DBD09CB92DBAB5FA85F4C6
:1003A00024F0070427FA04F1DDE9026723FA04F3D5
:1003B00003F0FF0001F0FF01FDE80445A0EB0100A0
:1003C000704724BAB4FA84F424F0070426FA04F13E
:1003D000DDE9026722FA04F202F0FF0001F0FF01FA
:1003E000FDE80445A0EB0100704714F0030F3CD179
:1003F00010F0030428D150F8082B51F8083B82FA7A
:100400004CF582EA0305A5FA8CF55DB950F8042C89
:1004100051F8043C82FA4CF582EA0305A5FA8CF502
:10042000002DE8D02DBAB5FA85F424F0070423FA9C
:1004300004F122FA04F202F0FF0001F0FF01FDE8EE
:100440000445A0EB010070474FEAC40420F003000C
:1004500050F8082B21F0030151F8083B0CFA04F482
:1004600062EA040263EA0403C9E710F003041AD045
:10047000A1EB040120F00300E40750F8042B06D0A0
:100480000FD28B785FFAA2F4E41A06D12BB1CB78A5
:100490005FFAB2F4E41A00D11BB920465DF8104BA4
:1004A000704701F1040150F8042BCC0721F003013F
:1004B00051F8043B48D824D222F07F4482FA4CF50C
:1004C00094EA1325A5FA8CF50AD165B951F8043BD5
:1004D00084EA0204B4EB036F0ED150F8042BEBE76F
:1004E0004FEA132355E035F07F454DD10878FDE8FC
:1004F0000445C0F1000070474FEA126203F0FF03A9
:1005000047E002EA1C4482FA4CF594EA1345A5FA46
:100510008CF50AD165B951F8043B84EA0204B4EBC6
:10052000034F0CD150F8042BEBE74FEA134330E0B4
:1005300015EA1C4528D10B884FEA124229E04FEA00
:10054000124203EA1C4324E002F0FF0482FA4CF555
:1005500094EA1365A5FA8CF50AD165B951F8043B04
:1005600084EA0204B4EB032F09D150F8042BEBE723
:100570004FEA13630DE015F0FF0F05D10B684FEA4A
:10058000122223F07F4304E04FF00000FDE8044511
:10059000704712BA1BBA82FA4CF482EA0304A4FA36
:1005A0008CF5B5FA85F402FA04F203FA04F34FEA83
:1005B0001260FDE80445A0EB1360704700000000E6
:1005C00001F0FF01102A2BDB10F0070F08D010F804
:1005D000013B013A8B422DD010F0070F42B3F6D108
:1005E000F0B441EA012141EA014122F007047FF021
:1005F00000070023F0E80256083C85EA010586EA78
:10060000010685FA47F5A3FA87F586FA47F6A5FAB3
:1006100087F68EB9EED1F0BC01F0FF0102F00702BF
:1006200032B110F8013B013A83EA010313B1F8D16A
:100630000020704701387047002D06BF354603384B
:10064000073815F0010F07D1013015F4807F02BF84
:10065000013015F4C03F0130F0BC0138704700BFD5
:1006600081F0004102E000BF83F0004330B54FEA63
:1006700041044FEA430594EA050F08BF90EA020FD0
:100680001FBF54EA000C55EA020C7FEA645C7FEA63
:10069000655C00F0E2804FEA5454D4EB5555B8BF86
:1006A0006D420CDD2C4480EA020281EA030382EAF7
:1006B000000083EA010180EA020281EA0303362D89
:1006C00088BF30BD11F0004F4FEA01314FF4801C5C
:1006D0004CEA113102D0404261EB410113F0004F6E
:1006E0004FEA03334CEA133302D0524263EB430325
:1006F00094EA050F00F0A780A4F10104D5F1200EC3
:100700000DDB02FA0EFC22FA05F2801841F100011D
:1007100003FA0EF2801843FA05F359410EE0A5F1F1
:1007200020050EF1200E012A03FA0EFC28BF4CF022
:10073000020C43FA05F3C01851EBE37101F00045D8
:1007400007D54FF0000EDCF1000C7EEB00006EEBE5
:100750000101B1F5801F1BD3B1F5001F0CD349086F
:100760005FEA30004FEA3C0C04F101044FEA4452C6
:1007700012F5800F80F09A80BCF1004F08BF5FEA4D
:10078000500C50F1000041EB045141EA050130BD2D
:100790005FEA4C0C404141EB0101013C28BFB1F53F
:1007A000801FE9D291F0000F04BF01460020B1FA8A
:1007B00081F308BF2033A3F10B03B3F120020CDA5D
:1007C0000C3208DD02F1140CC2F10C0201FA0CF03B
:1007D00021FA02F10CE002F11402D8BFC2F1200CA0
:1007E00001FA02F120FA0CFCDCBF41EA0C01904056
:1007F000E41AA2BF01EB0451294330BD6FEA04049F
:100800001F3C1CDA0C340EDC04F11404C4F1200289
:1008100020FA04F001FA02F340EA030021FA04F39B
:1008200045EA030130BDC4F10C04C4F1200220FAF2
:1008300002F001FA04F340EA0300294630BD21FA30
:1008400004F0294630BD94F0000F83F4801306BFF6
:1008500081F480110134013D4EE77FEA645C18BFEA
:100860007FEA655C29D094EA050F08BF90EA020F81
:1008700005D054EA000C04BF1946104630BD91EA79
:10088000030F1EBF0021002030BD5FEA545C05D17C
:100890004000494128BF41F0004130BD14F58004BB
:1008A0003CBF01F5801130BD01F0004545F0FE412F
:1008B00041F470014FF0000030BD7FEA645C1ABF64
:1008C000194610467FEA655C1CBF0B46024650EA9B
:1008D000013406BF52EA033591EA030F41F40021C7
:1008E00030BD00BF90F0000F04BF0021704730B54D
:1008F0004FF4806404F132044FF000054FF0000122
:1009000050E700BF90F0000F04BF0021704730B5E2
:100910004FF4806404F1320410F0004548BF4042B7
:100920004FF000013EE700BF42004FEAE2014FEA0C
:1009300031014FEA02701FBF12F07F4393F07F4FE7
:1009400081F06051704732F07F4208BF704793F0EA
:100950007F4F04BF41F40021704730B54FF46074FD
:1009600001F0004521F000411CE700BF50EA010200
:1009700008BF704730B54FF000050AE050EA0102A9
:1009800008BF704730B511F0004502D5404261EB19
:1009900041014FF4806404F132045FEA915C3FF45A
:1009A000D8AE4FF003025FEADC0C18BF03325FEAF7
:1009B000DC0C18BF033202EBDC02C2F1200300FAA8
:1009C00003FC20FA02F001FA03FE40EA0E0021FACD
:1009D00002F11444BDE600BF70B54FF0FF0C4CF4BB
:1009E000E06C1CEA11541DBF1CEA135594EA0C0F6D
:1009F00095EA0C0F00F0DEF82C4481EA030621EAA8
:100A00004C5123EA4C5350EA013518BF52EA0335E2
:100A100041F4801143F4801338D0A0FB02CE4FF094
:100A20000005E1FB02E506F00042E0FB03E54FF0C4
:100A30000006E1FB03569CF0000F18BF4EF0010EBC
:100A4000A4F1FF04B6F5007F64F5407404D25FEAB8
:100A50004E0E6D4146EB060642EAC62141EA55516B
:100A60004FEAC52040EA5E504FEACE2EB4F1FD0CAD
:100A700088BFBCF5E06F1ED8BEF1004F08BF5FEA2B
:100A8000500E50F1000041EB045170BD06F00046DD
:100A900046EA010140EA020081EA0301B4EB5C048A
:100AA000C2BFD4EB0C0541EA045170BD41F4801182
:100AB0004FF0000E013C00F3AB8014F1360FDEBFA7
:100AC000002001F0004170BDC4F10004203C35DA83
:100AD0000C341BDC04F11404C4F1200500FA05F306
:100AE00020FA04F001FA05F240EA020001F00042A7
:100AF00021F0004110EBD37021FA04F642EB06011D
:100B00005EEA430E08BF20EAD37070BDC4F10C0446
:100B1000C4F1200500FA04F320FA05F001FA04F20A
:100B200040EA020001F0004110EBD37041F10001F6
:100B30005EEA430E08BF20EAD37070BDC4F1200501
:100B400000FA05F24EEA020E20FA04F301FA05F269
:100B500043EA020321FA04F001F0004121FA04F211
:100B600020EA020000EBD3705EEA430E08BF20EAE1
:100B7000D37070BD94F0000F0FD101F0004640001B
:100B800041EB010111F4801F08BF013CF7D041EA9D
:100B9000060195F0000F18BF704703F000465200A1
:100BA00043EB030313F4801F08BF013DF7D043EA72
:100BB0000603704794EA0C0F0CEA135518BF95EA28
:100BC0000C0F0CD050EA410618BF52EA4306D1D1AF
:100BD00081EA030101F000414FF0000070BD50EACE
:100BE000410606BF1046194652EA430619D094EA58
:100BF0000C0F02D150EA013613D195EA0C0F05D142
:100C000052EA03361CBF104619460AD181EA030195
:100C100001F0004141F0FE4141F470014FF000004D
:100C200070BD41F0FE4141F4780170BD70B54FF0E8
:100C3000FF0C4CF4E06C1CEA11541DBF1CEA135568
:100C400094EA0C0F95EA0C0F00F0A7F8A4EB05044A
:100C500081EA030E52EA03354FEA013100F0888041
:100C60004FEA03334FF0805545EA131343EA12630A
:100C70004FEA022245EA111545EA10654FEA0026BF
:100C80000EF000419D4208BF964244F1FD0404F578
:100C9000407402D25B084FEA3202B61A65EB0305D4
:100CA0005B084FEA32024FF480104FF4002CB6EB91
:100CB000020E75EB030E22BFB61A754640EA0C0011
:100CC0005B084FEA3202B6EB020E75EB030E22BF51
:100CD000B61A754640EA5C005B084FEA3202B6EB92
:100CE000020E75EB030E22BFB61A754640EA9C0051
:100CF0005B084FEA3202B6EB020E75EB030E22BF21
:100D0000B61A754640EADC0055EA060E18D04FEADE
:100D1000051545EA16754FEA06164FEAC30343EA7E
:100D200052734FEAC2025FEA1C1CC0D111F4801F4B
:100D30000BD141EA00014FF000004FF0004CB6E744
:100D400011F4801F04BF01430020B4F1FD0C88BFE3
:100D5000BCF5E06F3FF6AFAEB5EB030C04BFB6EBEE
:100D6000020C5FEA500C50F1000041EB045170BDE1
:100D70000EF0004E4EEA113114EB5C04C2BFD4EB0E
:100D80000C0541EA045170BD41F480114FF0000E92
:100D9000013C90E645EA060E8DE60CEA135594EA0E
:100DA0000C0F08BF95EA0C0F3FF43BAF94EA0C0F11
:100DB0000AD150EA01347FF434AF95EA0C0F7FF486
:100DC00025AF104619462CE795EA0C0F06D152EADA
:100DD00003353FF4FDAE1046194622E750EA4106BE
:100DE00018BF52EA43067FF4C5AE50EA41047FF4CF
:100DF0000DAF52EA43057FF4EBAE12E74FEA410232
:100E000012F5001215D211D56FF47873B3EB62525C
:100E100012D94FEAC12343F0004343EA505311F083
:100E2000004F23FA02F018BF404270474FF0000015
:100E3000704750EA013005D111F0004008BF6FF053
:100E4000004070474FF00000704700BF7BB972B997
:100E50000029BEBF00204FF0004106E008BF002877
:100E60001CBF6FF000414FF0FF3000F057B8ADF1FC
:100E7000080C6DE904CE002909DB002B1ADB00F019
:100E800087F9DDF804E0DDE9022304B07047404251
:100E900061EB4101002B1BDB00F07AF9DDF804E087
:100EA000DDE9022304B0404261EB4101524263EBB1
:100EB00043037047524263EB430300F069F9DDF8E6
:100EC00004E0DDE9022304B0404261EB41017047D8
:100ED000524263EB430300F05BF9DDF804E0DDE927
:100EE000022304B0524263EB4303704753B94AB93B
:100EF000002908BF00281CBF4FF0FF314FF0FF3022
:100F000000F00CB8ADF1080C6DE904CE00F040F92A
:100F1000DDF804E0DDE9022304B07047704700BF4C
:100F20004FF0FF3C06E000BF4FF0010C02E000BFB5
:100F30004FF0010C4DF804CD4FEA410C7FEA6C5C98
:100F40004FEA430C18BF7FEA6C5C1BD001B050EA3B
:100F5000410C0CBF52EA430C91EA030F02BF90EA26
:100F6000020F0020704710F1000F91EA030F58BFE5
:100F7000994208BF90422CBFD8176FEAE37040F047
:100F8000010070474FEA410C7FEA6C5C02D150EAE5
:100F9000013C07D14FEA430C7FEA6C5CD6D152EAA0
:100FA000033CD3D05DF8040B704700BF8446104665
:100FB00062468C461946634600E000BF01B5FFF764
:100FC000B7FF002848BF10F1000F01BD4DF808ED34
:100FD000FFF7F4FF0CBF012000205DF808FB00BF05
:100FE0004DF808EDFFF7EAFF34BF012000205DF85F
:100FF00008FB00BF4DF808EDFFF7E0FF94BF0120AC
:1010000000205DF808FB00BF4DF808EDFFF7CEFFAC
:1010100094BF012000205DF808FB00BF4DF808EDEB
:10102000FFF7C4FF34BF012000205DF808FB00BFBC
:10103000844641EA000313F003036DD1403A41D3E3
:1010400051F8043B40F8043B51F8043B40F8043BA2
:1010500051F8043B40F8043B51F8043B40F8043B92
:1010600051F8043B40F8043B51F8043B40F8043B82
:1010700051F8043B40F8043B51F8043B40F8043B72
:1010800051F8043B40F8043B51F8043B40F8043B62
:1010900051F8043B40F8043B51F8043B40F8043B52
:1010A00051F8043B40F8043B51F8043B40F8043B42
:1010B00051F8043B40F8043B51F8043B40F8043B32
:1010C000403ABDD2303211D351F8043B40F8043BD2
:1010D00051F8043B40F8043B51F8043B40F8043B12
:1010E00051F8043B40F8043B103AEDD20C3205D3E2
:1010F00051F8043B40F8043B043AF9D2043208D0DA
:10110000D2071CBF11F8013B00F8013B01D30B884B
:1011100003806046704700BF082A13D38B078DD029
:1011200010F003038AD0C3F10403D21ADB071CBFFB
:1011300011F8013B00F8013B80D331F8023B20F865
:10114000023B7BE7043AD9D3013A11F8013B00F89E
:10115000013BF9D20B7803704B7843708B78837026
:10116000604670474FEA410C7FEA6C5C02D150EA5E
:10117000013C0AD14FEA430C7FEA6C5C02D152EA8F
:10118000033C02D14FF0000070474FF00100704760
:101190002DE9F04786468C460846089E154674465B
:1011A0001946002B40F0C2808542B2FA82F245D93E
:1011B0004AB1C2F1200300FA02FC2EFA03F3954073
:1011C00043EA0C0C94404FEA154EA8B2BCFBFEF863
:1011D000230C0EFB18CC08FB00F943EA0C4399459D
:1011E00028D9EB1808F1FF3704D2994502D9A8F1A4
:1011F00002072B44A3EB0903A4B2B3FBFEFC0EFBD6
:101200001C330CFB00F044EA0344A04214D92C190F
:101210000CF1FF3304D2A04202D9ACF102032C44FA
:10122000241A43EA07401EB1D4400023346073609F
:10123000BDE8F0874746DDE76346F1E792BB431B15
:1012400001214FEA154EAFB2B3FBFEFC200C0EFBA2
:101250001C330CFB07F840EA0343984562D9EB18AE
:101260000CF1FF3004D2984502D9ACF102002B44B6
:10127000A3EB0803A4B2B3FBFEFC0EFB1C330CFB78
:1012800007F744EA0344A7424ED92C190CF1FF3367
:1012900004D2A74202D9ACF102032C44E41B43EA76
:1012A0000040C0E7C2F1200320FA03F195409040CE
:1012B0002EFA03F303434FEA154EAFB2B1FBFEFC27
:1012C0000EFB1C10190C0CFB07F841EA0041884585
:1012D00004FA02F422D969180CF1FF3004D28845CF
:1012E00002D9ACF102002944A1EB08019BB2B1FB89
:1012F000FEFC0EFB1C110CFB07F743EA01439F4267
:101300000ED9EB180CF1FF3104D29F4202D9ACF197
:1013100002012B44DB1B41EA004192E76046E3E710
:101320006146F7E76046A3E76346B7E7834206D91D
:1013300016B9002108467BE7C6E900E0F9E7B3FAF1
:1013400083F78FB9834201D3724508D8BEEB0204FC
:1013500060EB030301209C461EB9002168E7384674
:10136000FAE7C6E9004CF8E7C7F1200CBB4022FAC7
:101370000CF41C432EFA0CF120FA0CF3B840014394
:101380004FEA14490EFA07F5B3FBF9F81FFA84FE89
:1013900009FB18300B0C08FB0EFA43EA00439A4590
:1013A00002FA07F240D9E31808F1FF3004D29A4557
:1013B00002D9A8F102002344A3EB0A0389B2B3FBCC
:1013C000F9F809FB183308FB0EFE41EA03418E458C
:1013D0002CD9611808F1FF3304D28E4502D9A8F147
:1013E0000203214443EA0040A0FB0298A1EB0E0156
:1013F0004145CE46434602D306D14D4504D2B9EB12
:10140000020E68EB04030138002EA6D0B5EB0E02E5
:1014100061EB030101FA0CFC22FA07F34CEA030327
:10142000F940C6E9003198E74046C5E74346D9E7A9
:101430002DE9F04F9FB08246039117461C460025C8
:10144000387810B9284600F0A6BD252809D00399A0
:10145000D0470028C0F29F857B1C01350593059F6E
:10146000EEE71822002110A80DF082FF7B78252BD3
:1014700000F0BC800023791C98469E469C46184686
:101480000E4611F8012B2B2A00F0E38000F2DA80DF
:10149000202A00F0E180232A00F0E1802BB19DF8A2
:1014A000483043F040038DF84830B8F1000F05D0C4
:1014B0009DF8483043F020038DF84830BEF1000F0E
:1014C00005D09DF8483043F010038DF84830BCF14A
:1014D000000F05D09DF8483043F008038DF84830E0
:1014E00028B19DF8483043F004038DF848309DF84A
:1014F000483003F04401442903D16FF386138DF87B
:1015000048309DF848300E9643F080032A2A8DF823
:10151000483040F0A9809DF8493043F001038DF830
:101520004930731C1A782E2A9DF849200CBF0121DE
:10153000002161F341028DF849200CD15A1C0E9212
:101540005A782A2A40F0A0809DF8492042F00402EF
:101550008DF8492002331A786C2A00F0C18000F21D
:10156000A380682A00F0A9806A2A00F0C2804C2A71
:1015700000F0C78013F8012B0593782A8DF84B20D3
:1015800000F209816D2A00F2C980692A00F2038104
:10159000572A00F2E280412A04D0A2F14503022B2F
:1015A00000F2F9809DF84A3002F0DF020421A2F136
:1015B000410961F30203D9F100029DF849108DF849
:1015C0004A3042EB090262F3C7110A068DF849104E
:1015D000CBB200F11F8103F07802182A40F0098194
:1015E0006FF3C6038DF849300023F8E08DF84B30D7
:1015F000BB1C05939DF849309DF84A20DE0702F098
:10160000070040F1098154F8041B0491002908DA0D
:101610009DF8481041F004018DF8481004994942A2
:101620000491590740F1008154F8046B002E80F2B8
:10163000FF809DF849306FF341038DF849304FF03A
:10164000FF36F5E02D2A0DD0302A7FF427AF012395
:1016500016E74FF0010C13E74FF0010E10E74FF0C3
:1016600001080DE701200BE70EA804F00FFA0E9B0E
:10167000B3423FF457AF9DF848201390C00F60F37A
:1016800041028DF848204DE70EA804F0FFF99DF8BF
:1016900048301490C3F3400242EAD07262F341032F
:1016A0008DF848300E9B56E7742A26D07A2A7FF4AC
:1016B00061AF9DF8492006210CE05A78682A9DF810
:1016C000492006D1012161F3C6028DF84920023379
:1016D00050E7022161F3C6028DF84920013349E742
:1016E0005A786C2A9DF8492001D10421EBE70321A7
:1016F000F0E79DF849200521ECE79DF849200721F6
:10170000E8E7BDF8482022F4F04222F0020242F459
:10171000804242F00202ADF84820DFE76E3AD3B2D1
:1017200001229A4040F282431A429DF8493039D151
:1017300012F0240F61D1D1072DD59DF84A2003F076
:101740007803A3F14008032161F30202D8F10003FA
:101750008DF84A2043EB080341E0A2F15801C9B2D9
:10176000012000FA01F111F4624F7FF41BAF40F643
:10177000010319429DF849301AD111F4043F0AD0EF
:101780009DF84A2060F3020203F07803402B8DF8A5
:101790004A207FF429AF9DF8483043F001038DF8CB
:1017A000483021E79DF84A20022161F30202EBE76D
:1017B0009DF84A10022003F0780360F30201402BE9
:1017C0008DF84A1002BF9DF8481041F001018DF8D4
:1017D0004810632A7FF408AF003B18BF01239DF82F
:1017E0004820C2F340010B4363F341028DF84820C7
:1017F00000E713F0380FCED1F6E69DF84A2003211A
:1018000013F0780F61F302028DF84A2014BF012310
:101810000023E4E70123E2E79DF948100029B4BF63
:1018200013994FF0FF31FBE69E077FF508AF149E3A
:1018300000230428CDE913339DF8493007D19907D7
:1018400005D49DF949100029ACBF06260D2602F0EB
:101850000702012AC3F3C30332D1DA1E042A04D8D3
:10186000DFE802F02045452020002268012B4FEAE6
:10187000E271CDE910211BD19DF94020D117CDE9AE
:10188000102104349DF84820069292074FD0059B02
:1018900003993A46504611F031F80028C0F27B8394
:1018A0000544DCE554F8042BD117CDE91021E9E714
:1018B000022BE6D111B242F3C032CDE91012E0E7BB
:1018C000022A24D1DA1E042A04D8DFE802F0181014
:1018D00010181800012B54F8042B4FF0000114D0FD
:1018E000022BCDE91021CDD192B21092CAE7073474
:1018F00024F00704F4E80201CDE91001C2E754F82E
:10190000042B109200221192BCE7D2B2CDE7042A38
:1019100008D1073424F00704D4E900010834CDE9E4
:101920001001AFE7032AADD154F8042BDDE79DF891
:101930004B80B8F1780F3FF692ADB8F1570F5CD8F5
:10194000B8F1250F00F0A480B8F1240F7FF687AD21
:10195000B8F1410F04D0A8F14503022B3FF67FAD4B
:10196000DDE91023002BC0F24D810699080700F134
:101970004C81C1F300194FEA4919C3F30A51C3F36B
:101980001303002940F0448152EA030014BF4FF0D2
:10199000010C4FF0000CD80240EA5250D702CDE9BA
:1019A0000C70B8F1460F47EA010740EAE17008BF42
:1019B0004FF06608384300F0B881BCF1000F10D03A
:1019C0001B0343EA125317033A4618464FF0000C24
:1019D000002880F25681BCF1000F40F05981CDE91A
:1019E0000C730D9B43F00043A1F2FE3B0D930021CD
:1019F000DDE90C230F46052060E1A8F15802202AFA
:101A00003FF62DAD01A151F822F000BFD71B000811
:101A10005F1400085F1400085F1400085F140008DA
:101A20005F1400085F1400085F1400085F140008CA
:101A3000611900085F140008831B0008971B000849
:101A40006119000861190008611900085F14000895
:101A5000971B00085F1400085F1400085F1400085B
:101A60005F140008DD1B0008D71B0008271B0008B7
:101A70005F1400085F140008A11A00085F14000832
:101A8000D71B00085F1400085F140008D71B00086C
:101A900003994046D0470028C0F27D820135DEE43C
:101AA000002E109F3BDB314638460DF051FE002FD3
:101AB0003FF4D5AC3E18F31B4FF000099DF84A20C7
:101AC00012F01001069100F05B82023312F0400226
:101AD000DDF84C80089218BF149ACDF81C8043445E
:101AE00018BF9B18049A002A40F36582D31A9DF808
:101AF000482004935007C2F3800B00F15C8251062A
:101B000040F14C82B9F1000F07D003994846D04705
:101B10000028C0F240820135D94630223FE23846E3
:101B2000FEF76EFBC6E71098002800F024820DF146
:101B30007503009312AA17AB002103F0BDFFBDF897
:101B40004A3003F0EF0343F4F04343F01003074639
:101B5000ADF84A304FF00009002E0CDB9DF848200C
:101B60000DF17503DB1B6FF386129E428DF8482042
:101B700001D9F31A1393002F3FF471AC0DF17506E0
:101B80006DE0109B8DF85C304FF000090DF15D06A3
:101B900017AF012392E7069B1F0758BFC3F3001935
:101BA000DDE9102354BF4FEA49194FF02B09002BF0
:101BB00006DA524263EB4303CDE910234FF02D09BF
:101BC0000DF175030093DDE9100117AB12AA03F0C4
:101BD00073FF0746C0E74FF00009F1E7109A072BA3
:101BE0003FF63DACDFE803F00C04060C08080C0CD3
:101BF000157034E4158032E4EB17C2E900532EE48B
:101C000015602CE44FF02D09B7E64FF02B09B4E630
:101C100040F2FF70814231D108F10108A2495FFA18
:101C200088F8134311F8081001F003011ED10129AF
:101C30000BBF492369234E216E210CBF4622662229
:101C40008DF85C309DF848308DF85D106FF3861389
:101C50008DF85E208DF848300DF15F0617AFF31B4D
:101C6000B9F1000F3FF42AAF013327E7012915BF6F
:101C70006E234E23612141211A46E1E74FF0000C0B
:101C800089E6921801F1FF3140414FF0010C9FE6C7
:101C9000CDE90C20A5E6520842EAC3725B08B3F115
:101CA000333F59460BF1010BF5D200FB03FCA2FBBD
:101CB000002301F1020B6344013F01211BF1020FDC
:101CC000E9DB09B1CDE90C23BBF1000FDDE90C32F2
:101CD0002EDCCBF10401A1F120000BF11C0B02FA68
:101CE0000BFB22FA00F0CA40CB40079208F0DF025B
:101CF00043EA0B03472A43EA00037DD1F91C01DBC9
:101D0000BE422BDAA8F10208002E5FFA88F87CDDCB
:101D10009DF84820920606F1FF3676D4B6F1000B06
:101D200018BF4FF0010B721C27E04FF0000B5EE66E
:101D3000023342F100020CA8CDE90C3210F0AFFDE5
:101D4000DDE90C320BF1FF3B0137DB185241002A71
:101D50000BF1FF3BF9DACDE90C32B5E79DF84820ED
:101D60009006A6EB07064DD4B6F1000B18BF4FF056
:101D7000010BF2194FF066084AD4102AA8BF1022AE
:101D80009FED477B8DED0E7B10200B90DDE90E0162
:101D9000002A3FD1079A1B1842EB0101B1F1805F85
:101DA00047D2CDE90C31069BB8F1660F03F0200253
:101DB00040F0C180002F47DC30238DF85C30002AD2
:101DC00074D1002E40F3BA812E238DF85D3087B197
:101DD0007B42B342A8BF33469DF84A201393002BA1
:101DE000A6EB0306D4BF0023012363F345128DF84D
:101DF0004A200DF15E0340E0B8F1660F4FF0000B92
:101E0000B7D090E74FF0000BB3E74FF0000B8AE735
:101E10000022B5E7400840EAC1704908CDE90E014B
:101E20000EA8CDE9082310F03AFD089A099B013A63
:101E3000ACE75B0843EAC1730CA84908CDE90C3153
:101E4000013710F02CFDAEE717AB0B9900290BDD25
:101E50000BA90CA8CDE9063210F039FD069B079AB4
:101E600003F8010B013FF0D11397AAB9002E40F3FC
:101E700063812E2103F8011B0027002E1FDD0B9A22
:101E8000002A1CDD0BA90CA8069310F020FD069B70
:101E9000013E03F8010BF0E72E2203F8012BEBE7DC
:101EA0000000000000000008F47501082E238DF8E2
:101EB0005D30002F9DD0002E8ADC0DF15E03BBF15A
:101EC000000F4CD114961E4608F0DF03452B21D19C
:101ED000002FBABF7F422D232B23632FC8BF64225C
:101EE0007370C2BFB7FBF2F303F1300102FB13774B
:101EF0004FF00A0286F80080CABFB170023603367E
:101F0000B7FBF2F303F1300102FB1373303331708E
:101F100073700236139B002B2BDC149B002BD4BF59
:101F2000002301239DF84A2063F3861200238DF8D5
:101F30004A20337092E60BA90CA8069210F0C7FC59
:101F4000069A8DF85C00302818BF07F1FF3712B9E8
:101F5000002E40F3F3802E238DF85D3049E71E46B6
:101F6000013B16F8012C302AF9D02E2A08BF1E4654
:101F7000AAE70123D6E7734E8146771F05239DE527
:101F8000110748BF0133A1E5104609920399D047D4
:101F90000028099A05DA1FB0BDE8F08F2022DDF88D
:101FA00010B0594600290BF1FF3BEDDC049BCDF846
:101FB00010B02B445D1AB9F1000F05D003994846C3
:101FC000D0470028E7DB0135089B002B79D09DF92D
:101FD0004930002B29DBDFF870913B46187819F85F
:101FE000002052079B4603F101033FD49DF84A307D
:101FF000EF1B98065F4407D44246002A08F1FF38D9
:102000003BDC079B3B449F1A9BF800002E280AD11B
:102010000399D0470028BEDBB8F1000F07F1010794
:1020200031DC0BF1010B5D4638E0B94699F8000050
:102030007028C84609F1010913D1EF1B149D4744CC
:102040003D44EB1B002B34DC03993346424650469B
:1020500010F054FC00289EDB3844049E05460644DC
:1020600065E00399D0470028E0DA94E706930399E6
:10207000D0470028069BB1DA8DE703993020D0477E
:102080000028B9DA87E703993020D04708F1FF38F4
:10209000C0E70399D0470028FFF67DAF287819F8EC
:1020A00000305907A84605F10105F2D4A7EB0B074C
:1020B000C4E703993020D0470028FFF66CAF013702
:1020C000BFE79DF84A30DA0601D41B0706D503990D
:1020D0003020D0470028FFF65EAF0135069B3BB1AC
:1020E00003999DF84B00D0470028FFF654AF013507
:1020F000A84406E003993020D0470028FFF64BAFF4
:102100000135A8EB0503002BF4DC039933463A466E
:10211000504610F0F3FB0028FFF63DAF28449CE743
:1021200003992020D0470028FFF635AF0135731BF7
:10213000002BF5DCFFF793B91746C0E60DF15D0300
:10214000BDE600BF867B0108F575010800000000B0
:102150002DE9F047044688B08846174613F0A3FAE5
:102160000A220023FEF7C2FEB8F1010F06460D4613
:1021700007D102460B462046274911F0B5F9002049
:1021800011E07F6825483946FEF7AEF870B1244863
:102190003946FEF7A9F848B1204622493A4611F0DF
:1021A000BFF96FF0040008B0BDE8F087304629465B
:1021B00017A3D3E90023FEF749FE06460D46104655
:1021C0001946194A0023FEF741FE80460F46104685
:1021D00019464EF660220023FEF738FE82468946F5
:1021E000104619464FF47A720023FEF72FFECDE910
:1021F00002A9CDE90623CDE90401CDE900870B4909
:1022000032462B46204611F06FF9B8E7AFF3008055
:10221000005C260500000000DF7C0108F07C01085E
:10222000F37C0108FC7C010880EE3600137D010878
:102230002DE9F04F2DED028BD3B00C46CDE908010E
:1022400092460B930DF0D0FF036813931846FDF7E9
:10225000D7FFA38912901D0603D52369002B00F038
:102260008A870023CDF810A0CDE92733CDE91533B7
:10227000CDE917330E9314930793049B9FEDA27B34
:102280001B7829AA8DED107B26929346002B00F037
:10229000EB81DDF810A004E01AF8013F002B00F0FC
:1022A0001C81252BF8D1049BBAEB030540F01A8161
:1022B0009AF80030002B00F0D78100239AF80150E3
:1022C0008DF87B3006930AF1010A4FF0FF39039332
:1022D0000AF1010AA5F120035A2B00F23B81DFE845
:1022E00013F0A502390139019E0239013901390182
:1022F0006A003901390166027802390171028502EA
:1023000039017E025B005B005B005B005B005B00F1
:102310005B005B005B00390139013901390139018A
:1023200039013901CF01390134028700CF01CF01D2
:10233000CF013901390139013901C20239013901AD
:10234000B5003901390139013E023901B0023901C4
:1023500039010107390139013901390139013901DF
:1023600039013901CF01390134028B00CF01CF018E
:10237000CF01F2028B0080003901E8023901DA0254
:10238000B900C902800039013E027D0025073901EC
:102390003901280739017D00A5F1300300221AF820
:1023A000015B02EB820203EB4202A5F13003092B31
:1023B000F5D906928EE7089D28460DF015FF436873
:1023C00017931846FDF71CFF1890044628460DF099
:1023D0000BFF83681593002C40F070869AF800502C
:1023E00076E7039B9AF8005043F0200303936FE7CE
:1023F000039B43F010030393039B9C0640F19481DD
:102400000B9B073323F007031A46596852F8083B21
:102410000B920A460029C0F2BB85B9F1FF3F00F0DC
:10242000F587039921F0800653EA020100F05A85EE
:102430000A2B72F1000180F07C8730338DF8473130
:102440000DF2471303960493012634E0039B43F0F7
:1024500010030393039B13F0200200F054810B9BA5
:10246000073323F0070319465A6851F8083B0B91CC
:10247000039921F4806600210020B9F1FF3F8DF817
:102480007B0000F0938226F08000039053EA020064
:1024900040F08B82B9F1000F40F0C187002940F075
:1024A000268516F001061BBF30238DF8473152AB4D
:1024B0000DF2471304930023B145CDE90C3349468F
:1024C0009DF87B200A93B8BF314605910F93002AEF
:1024D00052D0059B013305934EE0049BBAEB0305F4
:1024E00000F0C280049B289FCBE90035279B013375
:1024F0002F44072B289727930ADC0BF1080B079B27
:102500002B440793D4E600BF000000000000000049
:10251000DDE9080126AA0EF05BFA80B90DF1A40BE3
:10252000EDE7DDE9080126AA0EF052FA002800F0D6
:102530008A800A9B1BB10A9908980DF057FD099BE8
:102540009B89590601F1E582079853B0BDEC028BD7
:10255000BDE8F08F002D00F0878000228DF8E45058
:102560008DF87B200123CDE90C2205931E4639AB63
:102570000A9291460F920493039B13F0020302D038
:10258000059902310591039911F0840405D1DDE923
:1025900005010F1A002F00F34183289F8AB1279A63
:1025A0000DF17B0101320137CBF80010072A4FF003
:1025B000010128972792CBF8041000F387830BF1D1
:1025C000080B83B1279B1FAA01330237CBF80020E9
:1025D000072B4FF0020228972793CBF8042000F333
:1025E00083830BF1080B802C00F0FC81A9EB06081B
:1025F000B8F1000F00F34282039BDA0500F16D8110
:10260000049BCBF80030279BCBF804600133F5190D
:10261000072B2895279300F3AA820BF1080B039B45
:10262000580705D5DDE905239C1A002C00F36E83BD
:10263000DDE9062305998A42ACBF9B185B18079316
:10264000002D7FF46EAF002327930A9B1BB10A99DC
:1026500008980DF0CBFC0DF1A40BCDF810A0049B55
:102660001B78002B7FF415AE289B002B3FF467AF3F
:10267000099C089826AA21460EF0AAF9A38960E7CA
:102680000B9B073323F00703B3EC027B57EC176B6C
:102690000B9327F000431B938DED1A7ADDE91A01A5
:1026A000AE4B4FF0FF328DED107BFEF75BFD002847
:1026B00040F09B84DDE91A01A84B4FF0FF32FEF792
:1026C00099FC002840F091840022002330463946CE
:1026D000FEF786FC002840F05B879DF87B20039B7B
:1026E0009F4C23F0800303939E4B472DC8BF1C468D
:1026F00003210023CDE90C3304940A9305910E467F
:1027000099460F93E3E60B9951F8043B0B9103991B
:1027100011F010017FF4ACAE039A12F0400000F00B
:1027200019879BB20A46A3E60B9A52F8043B0B9218
:10273000039AD00600F15584039A510640F14D8466
:1027400043F3C03211461BB264E60B9B002253F8E0
:10275000041B8DF87B208DF8E4100B9302E70B9F90
:1027600057F8043B049300268DF87B60002B00F0A3
:102770009E86B9F1FF3F00F00D8504984A46314628
:10278000FDF71EFF0A90002801F025810A9B049A9C
:102790000B97B1469E1A26EAE673CDE90C999DF88F
:1027A0007B200593CDF82890CDF83C908FE60B9BCD
:1027B00053F8042B0692002A80F20A84069A0B939F
:1027C00052420692039B9AF8005043F0040303938D
:1027D0007EE52B239AF800508DF87B3078E5039B3B
:1027E0009AF8005043F08003039371E5524612F8C3
:1027F000015B2A2D01F01982A5F13003092B9246C5
:102800004FF000093FF666AD1AF8015B09EB890944
:1028100003EB4909A5F13003092BF5D95AE5039BD0
:102820009AF8005043F00103039351E59DF87B3083
:102830009AF80050002B7FF44BAD20238DF87B30AD
:1028400046E5039B43F0100616F0200200F0898352
:102850000B9B073323F0070319465A6851F8083BCE
:102860000B91012108E6039B9AF8005043F00803FE
:1028700003932DE50B9A039B43F0020652F8043BA9
:102880000B9247F63002ADF87C20374A14920221B1
:1028900000227825F0E5039B9E0640F1FD830B9B0B
:1028A000079A1B681A60D2175A600B9B04330B936C
:1028B000D3E69AF80050039B6C2D00F0538443F04C
:1028C0001003039304E59AF80050039B682D00F071
:1028D000408443F040030393FAE4652D40F35381B1
:1028E000DDE9100100220023FEF770FB002800F054
:1028F0004982279B1D4ACBF8002001330137012272
:10290000072B28972793CBF8042000F38E850BF133
:10291000080B209B0E9A934204DB039BDB0701D438
:102920003D467CE6129B139ADD19CBE90023279BD9
:1029300028950133072B279300F3FE830BF1080B37
:102940000E9B5C1E002C7FF76AAE102C279B084F55
:1029500040F37885DDE90889102611E0FFFFEF7F5D
:10296000F8760108FC760108087701083877010835
:102970003C7701080BF1080B103C102C40F36285EA
:1029800001331035072BCBE90076CDE92735F1DD92
:1029900026AA494640460EF01BF800287FF4C9AD30
:1029A000DDE927350DF1A40BE6E7039E01293FF48D
:1029B0003FAD022900F0768152AC03F00701DB083D
:1029C00043EA4273D208303153EA0207204604F842
:1029D000011DF2D1F707049400F1768252AB039601
:1029E0001E1B68E5DDE90523A3EB0208B8F1000F23
:1029F0007FF7FCADB8F1100F3A46279BC04F29DD99
:102A000019951C961024DDE90865194606E0A8F121
:102A10001008B8F1100F0BF1080B18DD013110325E
:102A20000729CBE90074CDE92712F0DD26AA294653
:102A300030460DF1A40B0DF0CBFF00287FF479ADEB
:102A4000A8F11008B8F1100FDDE92712E6DC199D96
:102A50001C9E0B460133CBF80070072B08EB0207D6
:102A6000CDE92737CBF8048000F30E85A9EB0608E3
:102A7000B8F1000F0BF1080B7FF7BEADB8F1100FE6
:102A80003A46279B9E4F2EDD5946089CC3464FF081
:102A90001009B84637462E46099D06E0ABF1100BEB
:102AA000BBF1100F01F1080118DD01339448103219
:102AB000072BC1E90009CDE92732EFDD26AA294617
:102AC00020460DF085FF00287FF433ADABF1100BED
:102AD000BBF1100FDDE9273229A9E6DC35463E4679
:102AE0004746D8468B460133CBF80070072B08EBDE
:102AF0000207CDE92737CBF8048000F325820BF1DC
:102B0000080B79E5279B7F49CBF8001001337D1C2A
:102B10000121072B28952793CBF8041000F34A8551
:102B20000BF1080B002A40F0E084039B0E9A03F09F
:102B3000010313433FF473AD129B139A5919CBE968
:102B40000023279B28910133072B279300F3EF8560
:102B50000BF1080B049ACBF800200E9ACBF8042056
:102B600001335518072BCDE927357FF756ADDDE941
:102B7000080126AA0DF02CFF00287FF4DAAC289D6E
:102B80000DF1A40B4BE50E9B012B0BF1080640F356
:102B90007A81049BCBF80030279B01330137012257
:102BA000072B28972793CBF8042000F3F981129A7A
:102BB00003F10108139BD519B8F1070FC6E90032DC
:102BC000CDE9278500F3F88108360E9BDDE9100179
:102BD00003F1FF3900220023FEF7F8F9002840F046
:102BE0008B81049CC6F8049008F1010801344D441F
:102BF000B8F1070FCDE92785346000F35981083615
:102C0000169A726008F101031544072B22AACDE938
:102C100027353260ABDC06F1080B00E5102FDDE94B
:102C20002721DFF8E4802DDD19934346CDE91C45CB
:102C3000B046DDE908451E4604E0103F102F0BF1B9
:102C4000080B19DD013210311023072ACDE92721A5
:102C5000CBF80060CBF80430EFDD26AA29462046E9
:102C60000DF1A40B0DF0B4FE00287FF462AC103F10
:102C7000102FDDE92721E5DCDDE91C453046199BF5
:102C80004646804601323944072ACBF80080CBF80B
:102C900004702891279200F3A9839DF87B200BF103
:102CA000080B7AE4149C52A903F00F001B09205C66
:102CB00001F8010D43EA0273120953EA0200F3D14D
:102CC00052ABCDE903615E1AFFF7F5BBDDE9080100
:102CD00026AA19930DF07CFE00287FF42AAC289FC9
:102CE000199B0DF1A40B6CE4DDE9080126AA0DF097
:102CF0006FFE00287FF41DAC289F0DF1A40B72E439
:102D00003C770108387701084C770108102C279B85
:102D1000DFF8CC8323DD4746DDF82490DDF8208002
:102D2000102604E0103C102C0BF1080B16DD0133CB
:102D30001035072BCBE90076CDE92735F2DD26AA41
:102D4000494640460DF1A40B0DF042FE00287FF4E9
:102D5000F0AB103C102CDDE92735E8DCB846013338
:102D60002544072BCBE90084CDE927357FF760ACFC
:102D7000DDE9080126AA0DF02BFE00287FF4D9AB6F
:102D8000289D55E4209A002A7FF7BCAE0C9E0E9B2E
:102D9000049A9E42A8BF1E46002E134419930BDDD1
:102DA000279B01333744072BCBE90026289727932D
:102DB00000F39F850BF1080B0C9D002EA8BFAD1BE7
:102DC000002D00F3EF81049B0C9A13449946039B5A
:102DD0005E0500F10C82209C0E9B9C4203DB039A53
:102DE000D50740F18E84129B139ADD19CBE900239D
:102DF000279B28950133072B279300F3DE850BF1E2
:102E0000080B0E9B1C1B199BA3EB0906A642A8BF2F
:102E10002646002E0DDD279BCBF80090013335446C
:102E2000072BCBF804602895279300F3E0850BF17E
:102E3000080B002EA8BFA41B002C7FF7F0AB102CB2
:102E4000279BA64F40F3FE82DDE90889102605E0A6
:102E50000BF1080B103C102C40F3F48201331035B9
:102E6000072BCBE90076CDE92735F1DD26AA4946C7
:102E700040460DF0ADFD00287FF45BABDDE9273562
:102E80000DF1A40BE6E7039BDC073FF582AE049B44
:102E9000CBF80030279B03F101087D1C0123B8F11A
:102EA000070F2895CDF89C80CBF804307FF7A8AEAB
:102EB000DDE9080126AA0DF08BFD00287FF439AB6F
:102EC000DDE9278529AE9BE6302900F0C882049A07
:102ED00003963023023802F8013C52AB1E1A0490CC
:102EE000FFF7E9BAB9F1000F7FF4A7AA039652AB36
:102EF0004E460493FFF7DFBA0E9B012B7FF780AE9F
:102F0000112B764F40F3E48243461024DDE9088B11
:102F100006E00836A9F11009B9F1100F40F3D78285
:102F200001331035072BC6E90074CDE92735F0DDF4
:102F300026AA594640460DF04BFD00287FF4F9AA19
:102F4000DDE9273529AEE5E7DDE9080126AA0DF020
:102F50003FFD00287FF4EDAA289F0DF1A40BFFF799
:102F60004BBB0B9951F8043B0B9116F010010CD19F
:102F700016F0400004D00A469BB20121FFF77CBA4C
:102F800016F400721CBFDBB202460121FFF774BACF
:102F90005B42039E62EB42022D200121FFF76DBAD6
:102FA000DDE9080126AA0DF013FD00287FF4C1AA6F
:102FB000DDE9273729AEFAE5DDE9080126AA0DF09B
:102FC00007FD00287FF4B5AADDE9278529AEFCE5D9
:102FD0009AF800500B93FFF77BB9039A920500F122
:102FE000A083DA171146FFF715BADDE91001024692
:102FF0000B46FEF7B7F8002840F0CC85612D00F0B5
:103000009584412D00F00385B9F1FF3F00F0AA83BC
:1030100025F02003472B04D1B9F1000F08BF4FF072
:103020000109DDE91001039C002944F48072059236
:10303000C0F2B584002341EC180B19930A93A5F153
:103040004103252B00F2C482DFE813F09603C2028D
:10305000C202C2028F039303C202C202C202C202B0
:10306000C202C202C202C202C202C202C202C20240
:10307000C202C202C202C202C202C202C202C20230
:10308000C202C202C202C202C202C202C202C20220
:10309000C202C2028F039303039BDD0600F101828B
:1030A000039B5C0600F13783039B980540F1F9818F
:1030B0000B9B079A1B681A70FFF7F7BB159B9AF8D2
:1030C0000050002B3FF404A91B78002B3FF400A90B
:1030D000039B43F480630393FFF7FAB83C7701083E
:1030E0004C770108BD4B1493039B13F0200200F0B2
:1030F00002810B9B073323F0070319465A6851F8E6
:10310000083B0B910398C1070AD553EA020107D087
:1031100040F00201039130218DF87D508DF87C1034
:10312000039921F480660221FFF7A6B9039EFFF7F9
:103130008BBBAB4B1493D7E7DDE9080126AA0DF052
:1031400047FC00287FF4F5A9289D0DF1A40BFFF79B
:10315000F7BB43F400739AF8015003930AF1010A94
:10316000FFF7B6B843F020039AF8015003930AF131
:10317000010AFFF7ADB8089840210BF08DFD099BBF
:1031800018601861002800F0C184099A4023536137
:10319000FFF767B804980B97FDF732F8B14606467B
:1031A000FFF7F9BA102D3A46279B8E4F40F3E18185
:1031B000DDE90848102605E00BF1080B103D102D45
:1031C00040F3D78101331032072BCBE90076CDE9EC
:1031D0002732F1DD26AA414620460DF0F9FB0028F2
:1031E0007FF4A7A9DDE927320DF1A40BE6E70D99DD
:1031F000CDF870A05A4638467A4EDDF854A0189B98
:10320000DDF824B04F464FF01008DDF83C9081B354
:10321000B9F1000F00F0FD8009F1FF391799C2E9FB
:10322000001327990131184407292890279173DC4E
:103230000832199C9AF80010E51B8D42A8BF0D4674
:10324000002D0CDD2799013128440729C2E90075BA
:103250002890279100F309819AF800100832002D78
:10326000ACBF4C1B0C46002C12DC0F440D990029FE
:10327000CED1B9F1000FCFD1199BCDF854A0B946EA
:103280009945DDF870A09346074628BF9946A2E508
:10329000102C279940F39084089D04930C9604E029
:1032A000103C102C02F1080215DD01311030072905
:1032B000C2E90068CDE92710F2DD26AA5946284662
:1032C0000DF086FB00287FF434A9103C102CDDE9BA
:1032D000271029AAE9DC049B0C9D156001312044CC
:1032E0000729CDE92710546000F310839AF80010E5
:1032F00008320F44BAE70B9951F8043B0B9103993C
:1033000011F010017FF4FEAE039A12F0400000F0BD
:1033100029819BB20A46F5E60898049326AA5946E5
:103320000DF056FB00287FF404A92898049B29AAD5
:103330007FE70021CDE9045606F48067DFF8A88016
:10334000159ECDF80CA052AC8C4605E00A2B72F10C
:10335000000235D353462A46991841F10001A8FBD3
:10336000010525F0030000EB9500091A581A4FF0EB
:10337000CC3562F1000E05FB00F508FB0E55A0FBF5
:1033800008A005440AF0010E0520AEFB000E40180F
:103390004FEA5A0A303004F8010C4AEAC57A0CF1B7
:1033A000010C013C6D08002FD0D031788C45CDD177
:1033B000BCF1FF0FCAD00A2B72F1000280F0ED8041
:1033C0001596DDE9045652ABDDF80CA0CDF838C0F7
:1033D000CDE903641E1BFFF76EB800BF1C77010820
:1033E000087701083C770108CDCCCCCCDDE9080199
:1033F00026AA19930DF0ECFA00287FF49AA89DF8FC
:103400007B20199B0DF1A40BFFF7C7B8039EFFF7B4
:103410000FB80D9901390AF1FF3A0D91FEE6012925
:10342000039E7FF4C6AAFFF708B8DDE9080126AAC3
:103430000DF0CEFA00287FF47CA8289F0DF1A40B94
:10344000FFF767BA01332544072BCBF80070CBF8A0
:103450000440CDE927357FF7E0A8FFF788BB049A41
:10346000039652AB9E1AFFF726B80898049326AA33
:1034700059460DF0ADFA00287FF45BA89AF80010C9
:103480002898049B29AAEAE6DDE9080126AA0DF09E
:103490009FFA00287FF44DA8289F0DF1A40BFFF799
:1034A000A5B80B9B079A1B681A60FFF7FEB94E463A
:1034B000062E1A4628BF062699460A93C14B059642
:1034C000CDE90C220B9704930F92FFF700B89846B2
:1034D00008F101084D44B8F1070FCDE927853760A1
:1034E000C6F804907FF78BABE2E4129B139859194E
:1034F000CBE90003279B28910133072B279300F387
:1035000016810BF1080B002ABFF624AB564210328D
:10351000AD4F80F2D382DDE90848102505E00BF1BC
:10352000080B103E102E40F3C98201331031072BD7
:10353000CBE90075CDE92731F1DD26AA41462046C9
:103540000DF046FA00287EF4F4AFDDE927310DF1E5
:10355000A40BE6E7039A12F400721CBFDBB202462A
:10356000FEF786BF039A12F400721CBFDBB202465C
:10357000C8E50133CBF80070072B05EB0207CDE956
:103580002737CBF8045000F3E0800BF1080B1AE466
:103590002D228DF87B20FFF7A2B8189B1799E41A0B
:1035A0001A4620460CF0A0F8737803B101364FF0AC
:1035B000000CCFE6DDE9080126AA0DF009FA002883
:1035C0007EF4B7AF209A289D0DF1A40BFFF7AABA9D
:1035D0004F46022124AB019321AB00930898B0EE33
:1035E000480AF0EE680A20AB3A4600F041FB672D2E
:1035F000049000F00E82472D00F09D82049B25F080
:103600002008B8F1460F03EB070605D11B78302BD5
:1036100000F0E482209F3E4451EC180B002200236E
:10362000FDF7D4FC002800F040813346049A9B1A31
:103630000E93209A0C92B8F1470F00F02481B8F154
:10364000460F00F0FE81531E612D209300F0DE82B4
:10365000412D40F0208150210120002BB6BFC2F146
:1036600001032B222D22092B8DF888108DF889203B
:1036700040F33D820DF19706544F32461046A7FBAA
:103680000312D20802EB8201A3EB4101303100F8B2
:10369000011C19466329134600F1FF32EEDC30337A
:1036A00002F8013C831EB34280F0BC820DF1890216
:1036B00013F8011B02F8011FB342F9D152AB181ADB
:1036C000A0F1AD0316930E9B169A012B03EB020695
:1036D00040F32D82129B1E4424F4806343F48073D4
:1036E00003930023CDE90C3326EAE6720F9305928B
:1036F000199B002B40F0D2809DF87B209946FEF765
:10370000E6BE199A1C1BA2EB0906A6423D46A8BFBD
:103710002646FFF78EBB0B9B079A1B681A80FFF7A4
:10372000C4B843F3C01211465BB2FEF773BEDDE9C5
:10373000080126AA0DF04CF900287EF4FAAEDDE966
:103740002731209A0DF1A40BDDE6DDE9080126AA58
:103750000DF03EF900287EF4ECAE289F0DF1A40B8D
:10376000FFF731BB4FF006095BE409F101070221C5
:1037700030E74F4603212DE720A8B0EE480AF0EECF
:10378000680A0DF0F1F800224FF07F5351EC100B56
:10379000FDF722F90022002306460F46FDF716FC2E
:1037A000002840F0BB810A4B039309F1FF33CDE9B8
:1037B0001C9B0D95CDE90E4ADDF81080DDF80CB0AC
:1037C0001D460DE0307701083C770108CDCCCCCC0C
:1037D0001C77010800220023FDF7F8FBF0B94D46E5
:1037E000AD4B002230463946FDF7F6F80F46064647
:1037F000FDF704FB0446FDF785F80B460246394603
:103800003046FCF731FF1BF80430C24608F8013B94
:103810006B1C05F1FF3906460F46DBD19F4B0C951B
:103820000022304639460D9D0D94DDE91C9B0E9C0F
:10383000CDF838A0DDF83CA0FDF7F0FB002840F003
:103840000E81964B304639460022FDF7BFFB18B17A
:103850000D9BDF0700F103810C9B002BC0F21A8146
:103860000C9B01334344302208F8012B4345FBD124
:10387000049A9B1A0E9325F02008DAE6049A249BFA
:103880009B1A209A0E93D31C0C9201DB914518DAF7
:10389000531E023D2093E9B20020DEE62D228DF872
:1038A0007B204FF00009FEF714BE249BB342BFF407
:1038B000BDAE30215A1C24921970249B9E42F9D827
:1038C000B4E60E9B934200F3AB80E30740F16081C6
:1038D000129BD618670502D5002A00F33381059B99
:1038E000039326EAE6730593672500230F930D9350
:1038F000FEE6DDE9080126AA0DF06AF800287EF44C
:1039000018AE289F0DF1A40BFFF756BA0898049340
:1039100026AA59460DF05CF800287EF40AAE9AF803
:1039200000102898049B29AA0F449FE478238DF85F
:103930007D3030238DF87C30039BB9F1630F43F069
:10394000020400F3AF8000230A9339AB0493039B76
:1039500043F481730593119B002B23DB9DED108BAA
:1039600000231993612D7FF46AABB0EE480AF0EEA4
:10397000680A20A80CF0F8FF00224FF07F5351ECAA
:10398000100BFDF729F80022002306460F46FDF72D
:103990001DFB002840F0C280414B039305E7002344
:1039A000039C0A93DDE9102303F1004308EE903AEB
:1039B0002D2308EE102A1993D4E7DDE9080126AA81
:1039C0000DF006F800287EF4B4AD209C289D0DF182
:1039D000A40BFFF716BA4E46CDF81490CDE90C00B3
:1039E0009DF87B200B9781460F90FEF770BDDDE9B7
:1039F000080126AA0CF0ECFF00287EF49AAD209C6A
:103A00000E9B289D1C1B0DF1A40BFFF712BA582327
:103A10008DE7E6077FF532AFC6194FF04708FBE5A3
:103A20000E9B129A9E180C9B002B40F3C8806725B2
:103A3000620500F18880059B039326EAE6730593EF
:103A400053E70C9A04F00103002A43EA090340F308
:103A5000D580002B40F0BD800C9E6625E8E70E9BCC
:103A6000039A2493D17B18F8013C8B42424609D13A
:103A7000302002F8010C249A531E249312F8013CC2
:103A80009942F6D0392B0BBF039B01339B7ADBB2F3
:103A900002F8013C4346EBE6000030400000E03F06
:103AA00008770108089809F101010BF0F5F8049076
:103AB000002800F0C980049B0A9348E70133314491
:103AC000072BCDE92731CBF80070CBF804607FF7E6
:103AD0003FA8DDE9080126AA0CF07AFF00287EF451
:103AE00028ADDDE927310DF1A40BFFF733B800282D
:103AF00040F0818030228DF88A200DF18B02303326
:103B000002F8013B22ABD31A1693DCE5089A0C238A
:103B100013604FF0FF330793FEF716BD4E4B4F4A2D
:103B2000612D18BF1A460123039220933DE6E20758
:103B30007FF5D2ADCEE5E1077FF5A0AE049BA846A8
:103B4000DE1969E5672515990B78FF2B78D00024DD
:103B50000C9A204603E001300131FF2B08D093423C
:103B600006DAD21A4B78002BF5D10B780134F4E742
:103B700015910D900F940C92059B0D9A03930F9B3A
:103B80001344189A02FB036626EAE6730593AFE531
:103B900016469FE6119B324C002B039BA8BF9DF855
:103BA0007B2023F08003B8BF2D220393B8BF8DF88C
:103BB0007B202C4BFEF799BD2B4DFFF78EBBC3F13D
:103BC00001031E44059A039226EAE67305936725CE
:103BD0008BE6129BD6184E44662529E751EC180B4C
:103BE00000220023FDF7F2F900287FF413ADC7F19E
:103BF000010720970FE50DF18A0280E743B9059B85
:103C000003930123059366251E466EE6702123E586
:103C1000059B0393129B5E1C4E4426EAE6730593B4
:103C2000662562E6022316934DE50B9B9AF8015038
:103C3000924653F8042B0B9342EAE279FEF748BB15
:103C400000230F930D9397E709998B8943F0400266
:103C500013468A81FEF775BC1C77010808770108B6
:103C600000770108047701083C7701080000000094
:103C70002DE9F04F9FB08DED040B0091016C289D54
:103C8000029057EC106B0A92089349B1426C4A605B
:103C90000123934004468B600CF0D0FA0023236488
:103CA000B7F10009B4BF012300232B60764BBCBFE2
:103CB00029F00049CDF8149033EA090300F0A880F8
:103CC0009DED047B002251EC170B00238DED067B4C
:103CD000FDF77CF9804668B1089A01231360299B9F
:103CE00013B1299A694B1360694B039303981FB072
:103CF000BDE8F08F9DED060B02981CAA1DA90CF0E3
:103D0000D3FD5FEA1955824640F09880DDE91C85B5
:103D1000454405F23243202B40F38483C3F1400332
:103D200009FA03F905F2124326FA03F349EA0300FC
:103D3000FCF7D8FD0123013D1193A1F1F871554B1A
:103D40000022FCF791FC4AA3D3E90023FCF744FED0
:103D500049A3D3E90023FCF789FC064628460F4611
:103D6000FCF7D0FD46A3D3E90023FCF735FE02465D
:103D70000B4630463946FCF779FC06460F46FDF700
:103D80003DF800228346002330463946FDF728F9E6
:103D9000002840F01B83A8EB0508BBF1160F08F1C3
:103DA000FF3400F28D813C4D05EBCB05D5E90023B6
:103DB000DDE90601FDF714F9002873D00023002C7B
:103DC0000BF1FF3B1093C0F2808100230B93BBF1FA
:103DD000000F6DDA0B9BA3EB0B030B93CBF10003EE
:103DE000CDE90EB3009B092B4FF0000B68D8052BD3
:103DF00040F31D83043B00930025009B023B032BF3
:103E000000F22486DFE813F060045D0455043904F1
:103E1000089AC9F3130942F20F7359EA06091360AD
:103E20001CD1299B002B00F02C861C4B03930833DC
:103E3000299A039813601FB0BDE8F08FDDE90612E0
:103E4000C2F31303084643F07F51CDF84480A5F236
:103E5000FF35DDF8708041F4401170E7299B002B9D
:103E600040F0E8830E4B039340E700BFAFF30080C0
:103E700061436F63A787D23FB3C8608B288AC63F70
:103E8000FB799F501344D33F0000F07F397701083E
:103E9000387701080000F83FA06101085C7701084D
:103EA00068770108B8F1000F40F35D8410900B9023
:103EB00000230F93009BCDF838B0092B5C4496D9B2
:103EC00000234FF0FF32CDE90923012500930C9523
:103ED000029B00215964099B189302980CF088F901
:103EE0000390002800F0BB85DDE902321A64099BCB
:103EF0000E2B00F21481002D00F011810E9A002A81
:103F000040F33884B14D02F00F0305EBC3031511E4
:103F1000D205D3E9008940F1F883AD4BDDE9060114
:103F2000D3E90823FCF782FECDE9120105F00F0565
:103F300003277DB1A64EEB0708D540464946D6E992
:103F40000023FCF749FD0137804689466D1006F1D4
:103F50000806F0D142464B46DDE91201FCF766FE49
:103F600080468946109B43B19A4B00224046494601
:103F7000FDF736F8002840F0F0843846FCF7C2FC24
:103F800042464B46FCF728FD934B0022FCF76EFBA4
:103F9000099B0646A1F15077002B00F0A9800E9BEB
:103FA0001993099B1293039B884D49464046CDE9DE
:103FB00014675E1CFCF722FF129905EBC10313ED99
:103FC000027B07468DED167BFCF79CFC02460B46F8
:103FD00040464946FCF748FB89460C993037DDE9F5
:103FE00016238046FFB2002900F052847B4900204E
:103FF000FCF71CFEDDE91423FCF736FB039D0246AB
:104000000B46CDE914232F7042464B46FDF706F8C8
:10401000002840F09684CDE91AB4CDF858A0129D3E
:10402000DDE914AB00272AE00137AF4280F2DD84DE
:104030006B4B504659460022FCF7CEFC684B0022E1
:1040400082468B4640464946FCF7C6FC8946804678
:10405000FCF7D4FE0446FCF755FC02460B464046EE
:104060004946FCF701FB303406F8014B52465B46EB
:1040700080468946FCF7B4FF002840F0B3844246EE
:104080004B4654490020FCF7EFFA52465B46FCF7DA
:10409000A7FF0028C8D0199BDDF858A0039A37461F
:1040A00003F1010802E0974200F07B843E4617F8D6
:1040B000013D392BF7D00133DBB23B70454674E14B
:1040C0000123002C1093BFF680AEC8F101030B93BF
:1040D00000247CE63846FCF715FC42464B46FCF7CC
:1040E0007BFC3D4B0022FCF7C1FA0646A1F150775C
:1040F0003C4B404649460022FCF7B6FA32463B4666
:1041000080468946FCF78AFF002840F059844046E3
:104110004946324607F10043FCF762FF28BB1D9B6E
:10412000002BC0F291800E9A0E2A00F38D80274D4D
:104130000E9B05EBC30595ED007B0A9B002B8DEDD7
:10414000007B19DA099B002B16DC0ED1254B0022CF
:10415000DDE90001FCF740FC02460B46DDE9060103
:10416000FCF748FF002800F02B844FF00009039E65
:104170004F460A9BDD4324E2DDE90045DDE906897F
:1041800022462B4640464946FCF750FDFCF736FEDA
:104190000646FCF7B7FB22462B46FCF71DFC039FA7
:1041A0000B46024649464046FCF75EFA06F13003EC
:1041B00007F8013B099B012B00F010830125CDF886
:1041C00010A09946DDE900ABA8462BE0A0610108EC
:1041D000786101080000F03F00001C400000E03F53
:1041E000000024400000144052465B462046294609
:1041F000FCF71CFDFCF702FE0646FCF783FB52466B
:104200005B46FCF7E9FB08F101080B46024629462C
:104210002046FCF729FA06F13003C84507F8013BB0
:1042200000F0DA82B94B0022FCF7D6FB0022002313
:1042300004460D46FCF7CAFE0028D5D00E9DDDF8D9
:1042400010A001353E46B0E00C9A002A40F0D28022
:1042500000230F9E0B9D0C931F4655B1002C08DDCB
:10426000A5420B9A2B46A8BF2346D21A0B92ED1AF1
:10427000E41A0F9B53B10C9B13B1002E40F0E78260
:1042800051460F9A02980CF069F982460298012172
:104290000CF080F88146BBF1000F40F0B681009B26
:1042A000012B40F3CC810120204410F01F0000F0CE
:1042B0009A80C0F12003042B40F3DA810B9BC0F1FC
:1042C0001C0003440B93054404440B9B002B05DDA9
:1042D000514602981A460CF09BF98246002C05DDE7
:1042E0004946029822460CF093F98146109B002B18
:1042F00040F07081099B002B40F348810C9B002B00
:1043000040F0A4800E9D0135DDF80C80099CDDF89D
:1043100008B0012607E0514600230A2258460BF058
:1043200097FF01368246494650460BF07BFDA64278
:1043300000F1300308F8013BEDDB099A002AC8BF01
:104340001646039AD8BF012602EB060B00245146FD
:104350000122029800930CF05BF9494682460CF06A
:10436000CFF9002840F3E281039A02E05A4500F0B9
:10437000E8815E460BF1FF3B16F8013C392BF5D086
:1043800001338BF80030DDF80880494640460BF0D9
:1043900055FF57B12CB1BC4203D0214640460BF02B
:1043A0004DFF029839460BF049FF029851460BF039
:1043B00045FF00233370089B1D60299B002B3FF4B1
:1043C00095AC03981E601FB0BDE8F08F5846FCF70F
:1043D00099FA32463B46FCF7F9FD00287FF4DBAC46
:1043E0000BF1FF3BD7E41C230B9A1A440B921D449C
:1043F0001C446AE7009A012A40F3A881099B0F9A9E
:104400005E1EB242C0F26A81002BA2EB060680F269
:10441000DD820B9B099A9D1A029801210BF0BAFFCD
:1044200007461AE7C3F1200306FA03F080E40125EA
:10443000E3E43946002302980A220BF009FF189B97
:10444000002B074640F3EF820E960993002D00F3F0
:104450003E81BBF1000F40F0DE81B846039E099C0F
:10446000731E1C44049B03F00103CDE90B43029C23
:10447000494650460BF0D6FC3946834650460CF070
:104480003FF942464946054620460CF05BF9C268B2
:1044900001460BF13003002A3AD1CDE90903504619
:1044A0000CF02EF90999069020460BF0C7FE069AEB
:1044B0000A9B002A5AD1009A1AB90C9A002A00F0D5
:1044C0009A82002D45DB0B9AB346B2420BF8013BB2
:1044D00000F0B881514600230A2220460BF0B8FEB6
:1044E0004745824639464FF000034FF00A02204606
:1044F00036D00BF0ADFE4146074600230A22204687
:104500000BF0A6FE5E468046B2E700BF00002440E6
:10451000029806930BF092FE002D069B06DB049A90
:10452000009902F001020D432A432AD1514601228B
:10453000029800930CF06CF8494682460CF0E0F8C3
:104540000028009B40F3E780392B00F02F820BF10D
:1045500031030E9D06F8013B3C460135474612E704
:104560000BF076FE5E460746804681E7002DC0F2DE
:104570007D8200990D430C990D4300F07782002A4B
:10458000A1DD392B00F012820133E2E7009B022B00
:104590007FF7B4AE099B002B40F01C8149460522F1
:1045A00002980BF055FE0146814650460CF0A8F8E3
:1045B000002840F30F81039E0E9D312306F8013B36
:1045C00001350298494601350BF038FE002F7FF483
:1045D000E8AEEAE6494650460CF092F80028BFF6ED
:1045E00089AE5146002302980A220BF031FE0E9B41
:1045F0005E1E0C9B8246002B7FF41BAF189B002B8A
:1046000040F3FF810E9D09937EE601465A460298CB
:104610000BF0A4FF009B012B81466BDD4FF0000BDC
:10462000D9F8103009EB830318690BF061FEC0F173
:10463000200039E6924B03930333FFF7F9BB049B49
:10464000002B7FF430AEDDE90412C2F31303002B1C
:104650007FF429AE8B4B134023B10B9B01330B939B
:1046600001340123BBF1000F40F0AE819B461AE6F6
:104670003FF42BAEC0F13C03B6E601230C930A9B3A
:104680000E9A134418930133012B1E460993B8BFA9
:104690000126172E40F3D581012204235B0003F18C
:1046A0001400B042114602F10102F7D9029B59648D
:1046B00013E401230C930A9E002E32DD189609960E
:1046C000E7E700230C93DAE700230C93F3E739467E
:1046D00002982A460BF09CFF0746BAE60F9B0B9AFE
:1046E0000F96F31A9B44099B15461A441C440B92DF
:1046F000002691E6049B002B90D1DDE90401C1F373
:1047000013030A46002B89D1A4E79DED067B0227FF
:104710008DED127B0DE47FF41CAFDA077FF519AF46
:1047200012E70123CDE90933FFF7D2BB03D1009B88
:10473000DB073FF519AE5E461BF8013D302BFAD082
:1047400021E6039A3123013513701CE6119A002AE1
:1047500000F0FA8003F233430B9A0F9E15461A4479
:104760001C440B9258E6C8F1010304460B931090C9
:10477000FFF79EBB00F0EC800E9B434D5E4206F0BF
:104780000F0305EBC303D3E90023DDE90601FCF7C2
:1047900023F93511CDE9120100F04E813B4E002383
:1047A000022780468946E80709D5D6E90023404616
:1047B0004946FCF711F901378046894601236D10FF
:1047C00006F10806EFD1002B7FF4CCABDDE91289AE
:1047D000FFF7C8BB039ECCE4DDF810A00E9D024697
:1047E0000B46FBF743FF02460B46CDE90423013598
:1047F000DDE90023A846FCF711FC40B9DDE9002300
:10480000DDE90401FCF7E2FB18B1F10701D5039AD9
:104810004CE43E46C9E5796802980BF0E9FC054690
:10482000002800F027813B6902339A0007F10C0150
:104830000C30FCF7FDFB0298294601220BF0E8FE44
:1048400080460BE60E9D3C46013547467FE5DDF888
:1048500008803946324640460BF080FE52460146FB
:10486000074640460BF0C4FD5146824640460BF0D9
:10487000E5FC0F9B9B1B0F933FF408AD00E500BFC9
:10488000687701080000F07FA061010878610108E5
:10489000DDE91401FCF7A0F8039B1F70129B012BAC
:1048A000CDE90C0100F0C680129F039BCDF844B007
:1048B0001F447C4B002240464946FCF78DF8894650
:1048C0008046FCF79BFA8346FCF71CF80BF1300B93
:1048D00002460B4640464946FBF7C6FE06F801BBBA
:1048E000B74280468946E4D1DDF844B06E4B0022E1
:1048F000DDE90C01FBF7BAFE02460B46404649468D
:10490000FCF78CFB002867D1DDE90C236649002009
:10491000FBF7AAFE02460B4640464946FCF760FB01
:1049200048B91D9B002BFFF693AC0E9B0E2B3FF757
:104930008FACFFF7FDBB3E46013F16F8013C302B24
:10494000F9D0199D013530E51C9BC3F1360303E70F
:10495000DDE906890227FFF705BB099B002B3FF421
:10496000B9AB189B002B7FF7DAAB0E9A1293013A82
:104970004C4B1992404600224946FCF72DF88046E0
:104980008946781CFBF7BEFF42464B46FCF724F8ED
:10499000464B0022FBF76AFE0646A1F15077FFF76F
:1049A00002BB08F101083123FFF787BB0E9D039A74
:1049B000B34639233C460BF8013B01354746D8E462
:1049C0004FF000094F46F6E59B4629E60B9A15463F
:1049D0001A441C440B921FE5199B039A03F101082A
:1049E000FFF764BBDDF858A0ABE7DDE91AB4DDF8EA
:1049F00058A0FFF794BB392BD8D0002D3FF7A7ADB7
:104A0000A7E5009B022B0ADC189B099349460E9DE3
:104A10000BF008FA039A00F1300313708DE4189B31
:104A200009930E96B6E5009B022BF8DC189B0E96B8
:104A300009930BE5374659E7DDE912890227FFF7AD
:104A400091BA029B00215964FFF747BA029B0025E7
:104A50005D64294618460BF0CBFB0390A8B9144BB4
:104A6000144800224FF4D5710CF036F8002A7FF775
:104A700070AD5BE50E4B0F482A4640F2EA210CF080
:104A80002BF80D4B0393FFF731B9DDE902321A64BD
:104A90004FF0FF3301220A9518930C920993FFF708
:104AA0003EBB00BF000024400000E03F00001C406F
:104AB0006C770108807701085C770108014810F0E5
:104AC00022BB00BF68330020014810F01CBB00BFB0
:104AD000DC33002030B50C4D0C4C87B04FF0FF326A
:104AE0004FF0FF33694628460FF094FD08B107B038
:104AF00030BD009BA342F1D141F28832002301A9CD
:104B000020460FF06AFDE9E798600108706001082F
:104B10002DE9F04F2E4A85B01368446801330A2B03
:104B200000AF04DC13601437BD46BDE8F08F294D9B
:104B30002B6803F007030026022B1660F3D92068C8
:104B4000FBF7F2FE00220023FBF790FD824660682F
:104B50008B46FBF7E9FE00220023FBF787FDC7E940
:104B60000201A068FBF7E0FE00220023FBF77EFDB8
:104B7000C7E90001E068FBF7D7FE00220023FBF73E
:104B800075FD804620698946FBF7CEFE0022002392
:104B9000FBF76CFD6C4690B06A4697ED027B82EDA8
:104BA000087B97ED007B0C4B53610C23C2E906ABED
:104BB00082ED0A7BC2E90C89C2E90E0142F8103F7E
:104BC00046F2C0013346284601F0A2FBA546AAE7FB
:104BD000B8320020EC0B0020C47801082DE9F04F1A
:104BE000B44BDFF824839A6CB34D42F004029A640C
:104BF0009A6C95B002F004020392039A9A6C42F008
:104C000001029A649B6C03F00103049300220521C6
:104C10000B20049B04F012FD002205210B2007F05D
:104C2000CDFD0B2007F0FCFD002205210C2007F034
:104C3000C5FD0C2007F0F4FD3022002108A80AF081
:104C400097FB9E4BC8F800304046002410F0AEF9A8
:104C500002234FF0200901262246089308A92223A7
:104C60004046CDE90B34CDE90E64ADF824400A94FA
:104C70000D9407F067FE21464A460DEB0900CDE989
:104C8000054407940AF074FB4FF0A0424FF4403300
:104C9000C5E9002304274FF480634FF49C61284644
:104CA000C5E90B13C5E90244C5E90444AF61AC830F
:104CB0002E6285F8244085F83860EC6385F8404022
:104CC00007F0CCF805A92846059407F0CDFC7C48F0
:104CD0000A940623CDE908030DEB09017F2328463A
:104CE000CDE90B370D9407F0DDF9102221460DEBCD
:104CF00009000AF03DFB734F734BBC60C7E90034F9
:104D00004FF0800B42F63B333846C7E90334CDE918
:104D100005440794C7F818B04FF4805A10F04DFAC4
:104D20000DEB09013846CDF820A008F0F1F805A9EF
:104D30003846664E0794CDF8149008F0BDF9214628
:104D400010220DEB09000AF013FB614A079442F6AA
:104D50003B333046C6E90334C6E90024CDE90544B7
:104D6000C6E9054BB46010F028FA0DEB0901304696
:104D7000CDF820A008F0CCF805A93046CDE905947F
:104D8000079408F099F953494FF48072284607F0C8
:104D9000E3FB2146504A00944FF48073404607F0ED
:104DA0004DFD304608F01CF8384608F019F84B4F16
:104DB000DFF858814A4C4FF0FF324FF0FF3349483B
:104DC000464D08F0B5FD4349474A9FED487A2B46CA
:104DD00000264FF0000931F8020BC3F8049007EEEB
:104DE000900AF8EE677A013667EE877AB6F5807F2B
:104DF000C3ED007AE2EC017A03F10803EBD1012361
:104E000000223946404606F0B7FD32462146384674
:104E100005F064FF9FED360A31488022214605F0F7
:104E200053FF3346334A3049334805F06DFF314B69
:104E30000026013653F8042B2A60B6F5807FC5F8AA
:104E4000049005F10805F4D10123002239464046BB
:104E500006F092FD22493246384605F03FFF2049D0
:104E60009FED230A0846802205F02EFF6368D4EDEB
:104E7000007A0993A3680A93B6EE007AE3680B936D
:104E800067EE877A23690C931C48CDED087A0022DF
:104E9000002308A90FF066FB23308CD11848036863
:104EA00003F00703022B86D9164A03210EF0F4F80B
:104EB00081E700BF001002403C3400200008005091
:104EC000020030041C33002000040040D0320020D7
:104ED00000340140D039002058090020A82A0020C1
:104EE000A82600208C0C0020A82200203333533A3F
:104EF0000000003CA81E00206862010870600108E4
:104F0000EC0B002000790108C833002078750108F7
:104F1000F0B59DB006461422002102A80AF028FA36
:104F20005422002107A80AF023FA3368B3F1A04FF6
:104F300042D14FF40043079307A84FF00053189352
:104F400006F0FAFD1D4B1E4CDA6C42F40052DA6496
:104F5000DA6C02F400520092009ADA6C42F001021C
:104F6000DA64DB6C03F001030193019B012103234D
:104F70000025CDE902134FF0904002A9049507F0F7
:104F800061FE104B25620527C4E9003780204FF4ED
:104F90008073C4E904034FF4806C20232046C4E9E5
:104FA0000255C4E906C307F0DFFD74652A46394699
:104FB0000C20A66204F042FB1DB0F0BD00100240C0
:104FC000DC3300201C00024070B5054688B0142276
:104FD000002103A80AF0CCF92A681E4B9A4236D168
:104FE00003F1704303F502331026DA6C1A4C42F4D5
:104FF0008032DA64DA6C02F480320192019ADA6C5F
:1050000042F00102DA64DB6C03F001030293029BBD
:1050100003A903234FF09040CDE9036307F012FE8C
:105020000E4AA6600623C4E9002300238022C4E9B7
:1050300003324FF400714FF48062C4E90512204638
:105040002022C4E9072307F08FFDAC60A56208B0F9
:1050500070BD00BF00080050683300200800024007
:105060001FB50368B3F1804F15D103F50433052153
:105070009A6D42F001029A659B6D03F00103019362
:1050800000221C20019B07F099FB1C2005B05DF855
:1050900004EB07F0C5BB0F4A93420CD10E4B9A6D3F
:1050A00042F002029A659B6D03F002030293029B99
:1050B00005B05DF804FB094A9342F9D1064B1A6E1C
:1050C00042F400521A661B6E03F400530393039BD1
:1050D000EEE700BF00040040001002400034014031
:1050E000014808F0FFBB00BF8C0C002002484FF4C1
:1050F000FA72002308F0A0BD000000208368DB697D
:1051000013B1024901221847704700BFA83400209C
:1051100038B50D210A480DF08AFA0A2105460948DA
:105120000DF085FA044615B107480DF094FB14B153
:1051300006480DF090FB0648BDE8384008F0D2BBA9
:10514000B05B0108D85B010894790108A1790108D6
:105150005C0C002038B52A4D284610F077F828B9A5
:10516000296828480DF077FB002038BD264C2046E2
:1051700010F06CF808B92168F3E724480DF06BFAD9
:10518000014628B12A680D2321480DF064FBEBE7A6
:1051900020480DF060FA014610B122680A23F3E7B7
:1051A0001D4B1E4A5A6028464FF410529A60FFF772
:1051B000A5FF2046FFF7A2FF14480DF063FA014651
:1051C00018B12A680D231648DFE712480DF05AFA85
:1051D000014610B122680A23F5E71248124D134C1C
:1051E0000DF039FB4FF0FF324FF0FF33284608F047
:1051F0009FFB05F055FD014620460DF02CFBF1E725
:10520000B05B0108AE790108D85B01087C62010837
:10521000D479010874620108A8340020ED50000818
:10522000FD790108337A01085C0C0020517A0108ED
:105230002DE9F04104460D46006810F007F80346DA
:1052400020682BB901682248BDE8F0410DF003BB8E
:10525000E388217943F400320769D0F808C013F0DD
:10526000010F4FF001063B6806FA01F614BF334305
:10527000B3433B60DCF8003098470646E0B925EAC6
:10528000E5710A2781FB07754FF001082068217935
:105290000269126808FA01F106F00103114218BF11
:1052A00083F0010383B18368DB6898470136384691
:1052B000294609F07FF8E9E7237A22790146BDE81B
:1052C000F04104480DF0C7BA83681B69EDE700BFE1
:1052D000737A0108927A010802480022C821FFF778
:1052E000A7BF00BF846201082DE9F04F91B0840789
:1052F000009302F004030293C2F3C20303F101031B
:10530000DDF86890039205460E46059340F0BA8199
:10531000041D30B1072909D86FF01B0011B0BDE89A
:10532000F08F01F00706341DC6F10806009B4FF010
:105330000008591E4FF0040A4FF0FF330193CDF8D7
:1053400010804746C34653460DB10098206005982B
:10535000002800F3E8809848009A824203D39748D7
:105360008242C0F0E080039AA4EB050E92074FEA58
:105370009E0000F103810F2F00F2B180002D00F09C
:10538000058107F140020DEB020C019A0CF8200C8C
:105390000CF8102C049801300490E7E07A285DD8CE
:1053A0004B280ED8472859D829282DD8252852D03F
:1053B00054D820287AD02338D0F1000B4BEB000BC7
:1053C00074E04C382E2849D8DFE800F0704848488F
:1053D00048484848484848484B484848484848484A
:1053E0004859484B4B595959704B6D487048184BA8
:1053F000184848827F4B48484B487F0000204FF0B8
:10540000000B4FF0040A38E02A38C0B2012202FA39
:1054100000F010EA0E0F49D110F0625C2FD110EAB3
:10542000020B43D06046013C5444B4FBFAF40AFB3F
:1054300004F4002D61D0A3EB050CA444B4453FF661
:105440006BAF002868D1042B47D159F8043B236087
:10545000043404232AE0019A013A01924FF0000B30
:1054600024E011F8010C6C2834D111F8023C002022
:105470006C2B8346C5D14FF0080A5346D3E709F198
:10548000070929F007090734F9E802AB24F00704FB
:1054900035B106982044B0423FF63EAFC4E900ABB8
:1054A00008344FF0000B4FF0080A534611F8010F73
:1054B000002878D0BBF1000F7FF470AF2528F5D11C
:1054C000019B013301934FF0010B4FF0040AECE70D
:1054D000584694E700208346A5E7082B02D06FF0DA
:1054E00015001BE709F1070929F00709B9EC027B50
:1054F00084ED007B08340823D8E768B9042B02D177
:1055000009F10409A4E7082BE9D109F1070929F0F9
:10551000070909F10809EDE705980138059059F8E0
:10552000040B009010E7039A900720D5A4EB050E1A
:105530004FEA9E004FF0010CBEF5007FCFD20F2F37
:10554000CDD8F5B107F140020DEB020EC0B2019AC1
:105550000EF8200C0EF8102CBCF1000F3FF41AAF1F
:1055600060F07F000EF8200C08F101080137C5F14A
:105570000802043406924FF6DA7E97E74FF0000CEB
:10558000DAE7BCF1000F01D00136EFE7029A0236EC
:10559000002AEBD10098CDE90631FAF731FEDDE9BA
:1055A00006310644E2E7631BB3F5806F97D23DB93D
:1055B000A6F10804E018B1E6745A0108E494010861
:1055C000029A28609B082B709DF81030C2B1EB70D6
:1055D00085F80280B8F1000F05D008A80022C5F1B7
:1055E000010C97420ED1C5F101030DF120094FF0D6
:1055F000000A01930DF1300B574512D1601B8DE667
:105600006B70E5E710F8013B190608D504EB0C0EAA
:10561000B64503F07F033FF67FAE04F8013B01324D
:10562000DFE7B8F1000F03D099F90020002A17DB5B
:10563000029BD3B11AF80B2004F8012B0022019B26
:1056400098182044B0423FF667AE99F8000004F87D
:10565000010B009903922046FBF7EAFC039A1444DD
:105660000AF1010A09F10109C6E799F8002055F885
:1056700022300093029B45F822300098FAF7C0FDD3
:10568000421CDCE76FF00D0048E600BF2DE9F04F4B
:1056900097B000AF90F802A0D7F880B03B62CBF390
:1056A000C0030446FA62BB61894641B94578007877
:1056B0000AEB800020444D4517D8A0EB0409E3789D
:1056C000FB61BAF1000F02D01BF0010F16D1FB698C
:1056D00053BBFB6A1BB13A6A4946204698474D4680
:1056E00028465C37BD46BDE8F08F461C3046FAF7C9
:1056F00087FD0130304409F10109DCE72378626855
:105700007A62FA6A9900796104EB8301002A40F019
:1057100004814D460E4601EB0A094FF000084E4544
:1057200050D101EB0A0610E01BF0020FD1D0237814
:105730009A007A6162687A62FA6A04EB8301002A4D
:105740007BD14D4601EB0A0690461BF0050F0CBFBE
:1057500002230123FB62FB6906EB430A0BF0020301
:10576000BB625645BCD016F8021B16F8013C54F833
:1057700023909B4B994502D39A4B99453AD3BB69E9
:10578000002B44D0786A0DF02DF800283FD09648C1
:10579000036813F0060F13D0E9468AB06A46934BAC
:1057A00053617B6AC2E906314FF400731384904B56
:1057B00042F8103F00234FF4125100F0A9FDCD46EE
:1057C000023DCEE716F8013BF96254F82300FAF7E0
:1057D00017FDD7F88430F96A01304BB1D7F888301B
:1057E00098453EBFD7F8843023F8180008F1010827
:1057F000054494E7BB6923B1786A0CF0F3FF0028F5
:10580000C5D11BF0010F05D1FB6AED1AA9E7BB6AF0
:10581000002BA6D04846FAF7F3FCD7F8843053B1F2
:10582000D7F8883098453FBFD7F88420431C22F82A
:10583000183008F10108054493E7BAF1000F72D05F
:105840001BF0040672D0D046002607F148005246ED
:105850003B61B962FBF7ECFBB96A3B6901EB0A02F9
:10586000BA62FA69F9695200FA60BA6A02EB410257
:105870003A610BF00202BA603A69B96A8A4257D1BA
:1058800062787A621BF0020F32440CBF4FEA580173
:1058900000211BF0010FD2B240F09F801BF0040FDB
:1058A00014BF40460020BB616270A070E1703A6A8C
:1058B0007969FB6A20469847051EFFF611AFBB6960
:1058C00023707B6A6370FB69E37041463A6AFB6A46
:1058D00084F802A007F148009847B0F10008C0F230
:1058E000B5807B693A6AA9EB0A01C91AFB68C91A33
:1058F000D7E90A0398470028C0F2AA80A84408EB19
:1059000000054FF0000B07F1380AB34572D30021B0
:105910003A6AFB6A08469847E2E656464FF00008A6
:1059200007F1380093E75646D04697E7B04695E72B
:10593000BA6A12F8021BBA6212F8015C284A54F8DB
:105940002500904202D3274A90421ED3BA6932B151
:10595000786A7B600CF046FF7B6800288CD1BA68BF
:1059600002BB08F1280207F1300C08F10100944451
:1059700007F1580252FA80F008F102080CF8101CE6
:105980005FFA88F800F8105C76E7BA693AB1786A8D
:105990007B600CF027FF7B6800287FF46DAF1BF065
:1059A000010F09D006F1280207F13000711C16180A
:1059B00006F8205CCEB25FE71BF0040F3FF45CAF4B
:1059C00008F1280207F1300008F1010102EB00089C
:1059D00008F8105C5FFA81F84EE7002063E700BF2B
:1059E000745A0108E4940108C40B0020CD7A010820
:1059F000040000011BF80A3087F8373054F8239070
:105A0000D7F88430FBB133F81B803A6AFB6A012176
:105A100007F13700984700281ADB0544B8F1000F5A
:105A200006D14846FAF7ECFB00F101081FFA88F8A6
:105A30003A6AFB6A414648469847002808DB054415
:105A40000BF1010B61E7D7F88480DEE7454647E6B6
:105A5000054645E6014B1860704700BF2807002047
:105A600030B587B00025CDE903010446009503A9B0
:105A700005480595FBF7DCFCDDE904309842B8BF2A
:105A8000255407B030BD00BF33280108F0B5094EDA
:105A9000016802460A2700200B4601311C78355D5B
:105AA0006D0701D41360F0BD07FB0043A3F1300084
:105AB000F2E700BFF57501082DE9F84F15469A4643
:105AC000D378234A12F803B06F2B81460F460BF0B0
